{
  "contractName": "Course",
  "abi": [
    {
      "constant": true,
      "inputs": [
        {
          "name": "",
          "type": "uint256"
        }
      ],
      "name": "arr",
      "outputs": [
        {
          "name": "",
          "type": "address"
        }
      ],
      "payable": false,
      "stateMutability": "view",
      "type": "function",
      "signature": "0x71e5ee5f"
    },
    {
      "constant": true,
      "inputs": [
        {
          "name": "",
          "type": "uint256"
        }
      ],
      "name": "courses",
      "outputs": [
        {
          "name": "rubric",
          "type": "uint256"
        },
        {
          "name": "course_name",
          "type": "string"
        },
        {
          "name": "instructor",
          "type": "string"
        },
        {
          "name": "venue",
          "type": "string"
        },
        {
          "name": "capacity",
          "type": "string"
        }
      ],
      "payable": false,
      "stateMutability": "view",
      "type": "function",
      "signature": "0x96f979d2"
    },
    {
      "constant": true,
      "inputs": [],
      "name": "no_courses",
      "outputs": [
        {
          "name": "",
          "type": "uint256"
        }
      ],
      "payable": false,
      "stateMutability": "view",
      "type": "function",
      "signature": "0xd0d410a0"
    },
    {
      "inputs": [],
      "payable": false,
      "stateMutability": "nonpayable",
      "type": "constructor",
      "signature": "constructor"
    },
    {
      "anonymous": false,
      "inputs": [
        {
          "indexed": false,
          "name": "_msg",
          "type": "string"
        }
      ],
      "name": "updateStatus",
      "type": "event",
      "signature": "0x2c215998d937f6b0fa143bb52b1dfc47b9b3b337476f05adda563da7e63b6d82"
    },
    {
      "constant": false,
      "inputs": [
        {
          "name": "_rubric",
          "type": "uint256"
        },
        {
          "name": "_course_name",
          "type": "string"
        },
        {
          "name": "_instructor",
          "type": "string"
        },
        {
          "name": "_venue",
          "type": "string"
        },
        {
          "name": "_capacity",
          "type": "string"
        }
      ],
      "name": "addCourse",
      "outputs": [],
      "payable": false,
      "stateMutability": "nonpayable",
      "type": "function",
      "signature": "0xb313b94c"
    }
  ],
  "bytecode": "0x608060405234801561001057600080fd5b507f2c215998d937f6b0fa143bb52b1dfc47b9b3b337476f05adda563da7e63b6d826040518080602001828103825260128152602001807f436f6e7472616374206465706c6f79656421000000000000000000000000000081525060200191505060405180910390a16000600281905550600173cd2fb51f9bd9fe572c91970e5b7248e94f3828d590806001815401808255809150509060018203906000526020600020016000909192909190916101000a81548173ffffffffffffffffffffffffffffffffffffffff021916908373ffffffffffffffffffffffffffffffffffffffff16021790555050600173ca35b7d915458ef540ade6068dfe2f44e8fa733c90806001815401808255809150509060018203906000526020600020016000909192909190916101000a81548173ffffffffffffffffffffffffffffffffffffffff021916908373ffffffffffffffffffffffffffffffffffffffff16021790555050600173720cc877b59356179770369c3791ce15ec5ccb9c90806001815401808255809150509060018203906000526020600020016000909192909190916101000a81548173ffffffffffffffffffffffffffffffffffffffff021916908373ffffffffffffffffffffffffffffffffffffffff16021790555050600173357d9375f60d6995f461097c82360d9bb0e009bb90806001815401808255809150509060018203906000526020600020016000909192909190916101000a81548173ffffffffffffffffffffffffffffffffffffffff021916908373ffffffffffffffffffffffffffffffffffffffff16021790555050600173fd95766daa72007f595ca112091b997ee5d45a2990806001815401808255809150509060018203906000526020600020016000909192909190916101000a81548173ffffffffffffffffffffffffffffffffffffffff021916908373ffffffffffffffffffffffffffffffffffffffff16021790555050610aab806102f26000396000f3fe608060405260043610610062576000357c0100000000000000000000000000000000000000000000000000000000900463ffffffff16806371e5ee5f1461006757806396f979d2146100e2578063b313b94c146102e1578063d0d410a014610578575b600080fd5b34801561007357600080fd5b506100a06004803603602081101561008a57600080fd5b81019080803590602001909291905050506105a3565b604051808273ffffffffffffffffffffffffffffffffffffffff1673ffffffffffffffffffffffffffffffffffffffff16815260200191505060405180910390f35b3480156100ee57600080fd5b5061011b6004803603602081101561010557600080fd5b81019080803590602001909291905050506105e1565b6040518086815260200180602001806020018060200180602001858103855289818151815260200191508051906020019080838360005b8381101561016d578082015181840152602081019050610152565b50505050905090810190601f16801561019a5780820380516001836020036101000a031916815260200191505b50858103845288818151815260200191508051906020019080838360005b838110156101d35780820151818401526020810190506101b8565b50505050905090810190601f1680156102005780820380516001836020036101000a031916815260200191505b50858103835287818151815260200191508051906020019080838360005b8381101561023957808201518184015260208101905061021e565b50505050905090810190601f1680156102665780820380516001836020036101000a031916815260200191505b50858103825286818151815260200191508051906020019080838360005b8381101561029f578082015181840152602081019050610284565b50505050905090810190601f1680156102cc5780820380516001836020036101000a031916815260200191505b50995050505050505050505060405180910390f35b3480156102ed57600080fd5b50610576600480360360a081101561030457600080fd5b81019080803590602001909291908035906020019064010000000081111561032b57600080fd5b82018360208201111561033d57600080fd5b8035906020019184600183028401116401000000008311171561035f57600080fd5b91908080601f016020809104026020016040519081016040528093929190818152602001838380828437600081840152601f19601f820116905080830192505050505050509192919290803590602001906401000000008111156103c257600080fd5b8201836020820111156103d457600080fd5b803590602001918460018302840111640100000000831117156103f657600080fd5b91908080601f016020809104026020016040519081016040528093929190818152602001838380828437600081840152601f19601f8201169050808301925050505050505091929192908035906020019064010000000081111561045957600080fd5b82018360208201111561046b57600080fd5b8035906020019184600183028401116401000000008311171561048d57600080fd5b91908080601f016020809104026020016040519081016040528093929190818152602001838380828437600081840152601f19601f820116905080830192505050505050509192919290803590602001906401000000008111156104f057600080fd5b82018360208201111561050257600080fd5b8035906020019184600183028401116401000000008311171561052457600080fd5b91908080601f016020809104026020016040519081016040528093929190818152602001838380828437600081840152601f19601f820116905080830192505050505050509192919290505050610877565b005b34801561058457600080fd5b5061058d6109d4565b6040518082815260200191505060405180910390f35b6001818154811015156105b257fe5b906000526020600020016000915054906101000a900473ffffffffffffffffffffffffffffffffffffffff1681565b6000602052806000526040600020600091509050806000015490806001018054600181600116156101000203166002900480601f0160208091040260200160405190810160405280929190818152602001828054600181600116156101000203166002900480156106935780601f1061066857610100808354040283529160200191610693565b820191906000526020600020905b81548152906001019060200180831161067657829003601f168201915b505050505090806002018054600181600116156101000203166002900480601f0160208091040260200160405190810160405280929190818152602001828054600181600116156101000203166002900480156107315780601f1061070657610100808354040283529160200191610731565b820191906000526020600020905b81548152906001019060200180831161071457829003601f168201915b505050505090806003018054600181600116156101000203166002900480601f0160208091040260200160405190810160405280929190818152602001828054600181600116156101000203166002900480156107cf5780601f106107a4576101008083540402835291602001916107cf565b820191906000526020600020905b8154815290600101906020018083116107b257829003601f168201915b505050505090806004018054600181600116156101000203166002900480601f01602080910402602001604051908101604052809291908181526020018280546001816001161561010002031660029004801561086d5780601f106108425761010080835404028352916020019161086d565b820191906000526020600020905b81548152906001019060200180831161085057829003601f168201915b5050505050905085565b60008090505b6001805490508110156109cc573373ffffffffffffffffffffffffffffffffffffffff166001828154811015156108b057fe5b9060005260206000200160009054906101000a900473ffffffffffffffffffffffffffffffffffffffff1673ffffffffffffffffffffffffffffffffffffffff1614156109bf5760a060405190810160405280878152602001868152602001858152602001848152602001838152506000808881526020019081526020016000206000820151816000015560208201518160010190805190602001906109579291906109da565b5060408201518160020190805190602001906109749291906109da565b5060608201518160030190805190602001906109919291906109da565b5060808201518160040190805190602001906109ae9291906109da565b509050506001600254016002819055505b808060010191505061087d565b505050505050565b60025481565b828054600181600116156101000203166002900490600052602060002090601f016020900481019282601f10610a1b57805160ff1916838001178555610a49565b82800160010185558215610a49579182015b82811115610a48578251825591602001919060010190610a2d565b5b509050610a569190610a5a565b5090565b610a7c91905b80821115610a78576000816000905550600101610a60565b5090565b9056fea165627a7a7230582080b66cb5e84deff9dfec359c128f92df8c2d6cf932fa91572e2f2ed2873b40770029",
  "source": "pragma solidity ^0.5.0;\r\n\r\ncontract Course {\r\n\tstruct Course_model {\r\n\t\tuint rubric;\r\n\t\tstring course_name;\r\n\t\tstring instructor;\r\n\t\tstring venue ;\r\n\t\tstring capacity; \r\n\t}\r\n\r\n\tmapping (uint => Course_model) public courses;\r\n\t\r\n\t//registered users\r\n\taddress[] public arr;\r\n\tuint public no_courses;\r\n\taddress owner;\r\n\t\r\n\t//to display message\r\n\tevent updateStatus(string _msg);\r\n\t\r\n\t//Constructor\r\n\tconstructor () public {\r\n\t\temit updateStatus('Contract deployed!');\r\n\t\tno_courses=0;\r\n\t\tarr.push(0xcD2fb51F9bd9fE572C91970E5B7248E94f3828d5);\r\n\t\tarr.push(0xCA35b7d915458EF540aDe6068dFe2F44E8fa733c);\r\n\t\tarr.push(0x720Cc877b59356179770369c3791cE15ec5cCB9c);\r\n \t\tarr.push(0x357D9375f60D6995F461097C82360d9bB0e009BB);\r\n\t\tarr.push(0xfD95766dAA72007F595ca112091B997eE5D45A29);\r\n\t}\r\n\t\r\n\tmodifier onlyOwner() {\r\n\t\trequire(msg.sender == owner);\r\n\t\t_;\r\n\t}\r\n\t\r\n\t\r\n\t//converts the caller's address to string\r\n// \tfunction toString1(address x) internal pure returns (string memory) {\r\n//         bytes memory b = new bytes(20);\r\n//         for (uint i = 0; i < 20; i++)\r\n//             b[i] = byte(uint8(uint(x) / (2**(8*(19 - i)))));\r\n//         return string(b);\r\n//     }\r\n\t\r\n\t//comapres strings (addresses)\r\n// \tfunction stringsEqual(address _a, string memory _b)  internal pure returns (bool) {\r\n// \tbytes memory a = bytes(_a);\t\r\n// \tbytes memory b = bytes(_b);\r\n// \tuint num1 = a.length;\r\n// \tuint num2 = b.length;\r\n// \tif (a.length != b.length)\r\n// \t\treturn false;\r\n// \t// @todo unroll this loop\r\n// \tfor (uint i = 0; i < a.length; i ++)\r\n// \t\tif (a[i] != b[i])\r\n// \t\t\treturn false;\r\n// \treturn true;\r\n// \t}\r\n\t\r\n\t//checks that only registered users can call\r\n\tmodifier ifIssuer()\r\n\t{\r\n\t\tfor (uint i=0; i<arr.length; i++)\r\n\t\t\t{\r\n\t\t\t\t// string memory senderString = toString1(msg.sender);\r\n\t\t\t\t// address user = arr[i];\r\n\t\t\t\t// if(stringsEqual(user, senderString))\r\n\t\t\t\t// \t_;\r\n\t\t\t\tif(arr[i]==msg.sender)\r\n\t\t\t\t{\r\n\t\t\t\t    _;\r\n\t\t\t\t}\r\n\t\t\t}\r\n\t}\r\n\r\n\tfunction addCourse (uint _rubric, string memory _course_name , string memory _instructor, string memory _venue, string memory _capacity) public \r\n\tifIssuer{\r\n\t\t// set msg.sender to run this fuction by specific users\r\n\t\t\r\n\t\tcourses[_rubric] = Course_model(_rubric,_course_name,_instructor,_venue,_capacity);\r\n\t\tno_courses=no_courses+1;\r\n\t\t\r\n\t}\r\n\t\r\n}\r\n",
  "sourcePath": "C:/Spring 2019 Coursework/Advanced Topics in Software Engineering/Project/contracts/Course.sol",
  "compiler": {
    "name": "solc",
    "version": "0.5.0+commit.1d4f565a.Emscripten.clang"
  },
  "schemaVersion": "3.0.6",
  "updatedAt": "2019-04-20T17:31:32.878Z",
  "devdoc": {
    "methods": {}
  },
  "userdoc": {
    "methods": {}
  }
}